{
  "contractName": "ANQSwap",
  "abi": [
    {
      "inputs": [
        {
          "internalType": "contract AnteqToken",
          "name": "_token",
          "type": "address"
        }
      ],
      "payable": false,
      "stateMutability": "nonpayable",
      "type": "constructor"
    },
    {
      "constant": true,
      "inputs": [],
      "name": "anteqToken",
      "outputs": [
        {
          "internalType": "contract AnteqToken",
          "name": "",
          "type": "address"
        }
      ],
      "payable": false,
      "stateMutability": "view",
      "type": "function"
    },
    {
      "constant": false,
      "inputs": [
        {
          "internalType": "contract AnteqToken",
          "name": "_token",
          "type": "address"
        }
      ],
      "name": "setTokenAddress",
      "outputs": [
        {
          "internalType": "bool",
          "name": "success",
          "type": "bool"
        }
      ],
      "payable": false,
      "stateMutability": "nonpayable",
      "type": "function"
    }
  ],
  "bytecode": "0x608060405234801561001057600080fd5b5060405161021a38038061021a8339818101604052602081101561003357600080fd5b8101908080519060200190929190505050806000806101000a81548173ffffffffffffffffffffffffffffffffffffffff021916908373ffffffffffffffffffffffffffffffffffffffff16021790555050610186806100946000396000f3fe608060405234801561001057600080fd5b50600436106100365760003560e01c806326a4e8d21461003b578063fe907c1f14610097575b600080fd5b61007d6004803603602081101561005157600080fd5b81019080803573ffffffffffffffffffffffffffffffffffffffff1690602001909291905050506100e1565b604051808215151515815260200191505060405180910390f35b61009f61012c565b604051808273ffffffffffffffffffffffffffffffffffffffff1673ffffffffffffffffffffffffffffffffffffffff16815260200191505060405180910390f35b6000816000806101000a81548173ffffffffffffffffffffffffffffffffffffffff021916908373ffffffffffffffffffffffffffffffffffffffff16021790555060019050919050565b6000809054906101000a900473ffffffffffffffffffffffffffffffffffffffff168156fea265627a7a72315820133d173a2672b96d8cf9a65ff50284dd2b5709d8645075136de50232b081b24964736f6c63430005100032",
  "source": "pragma solidity >=0.4.22 <0.9.0;\n\nimport \"./AnteqToken.sol\";\n\ncontract ANQSwap {\n    AnteqToken public anteqToken;\n\n    constructor(AnteqToken _token) public {\n        anteqToken = _token;\n    }\n\n    // add onlyOwner modifier\n    function setTokenAddress(AnteqToken _token) public returns (bool success) {\n        anteqToken = _token;\n        return true;\n    }\n}\n",
  "sourcePath": "D:\\programming\\first-simple-dapp\\contracts\\ANQSwap.sol",
  "compiler": {
    "name": "solc",
    "version": "0.5.16+commit.9c3226ce.Emscripten.clang"
  },
  "schemaVersion": "3.4.4",
  "updatedAt": "2022-01-20T13:59:42.873Z",
  "devdoc": {
    "methods": {}
  },
  "userdoc": {
    "methods": {}
  }
}