{
  "contractName": "ANQSwap",
  "abi": [
    {
      "inputs": [
        {
          "internalType": "contract AnteqToken",
          "name": "_token",
          "type": "address"
        }
      ],
      "stateMutability": "nonpayable",
      "type": "constructor"
    },
    {
      "anonymous": false,
      "inputs": [
        {
          "indexed": true,
          "internalType": "address",
          "name": "_buyer",
          "type": "address"
        },
        {
          "indexed": false,
          "internalType": "uint256",
          "name": "_amountETH",
          "type": "uint256"
        },
        {
          "indexed": false,
          "internalType": "uint256",
          "name": "_amountANQ",
          "type": "uint256"
        }
      ],
      "name": "BuyTokens",
      "type": "event"
    },
    {
      "anonymous": false,
      "inputs": [
        {
          "indexed": true,
          "internalType": "address",
          "name": "previousOwner",
          "type": "address"
        },
        {
          "indexed": true,
          "internalType": "address",
          "name": "newOwner",
          "type": "address"
        }
      ],
      "name": "OwnershipTransferred",
      "type": "event"
    },
    {
      "anonymous": false,
      "inputs": [
        {
          "indexed": true,
          "internalType": "address",
          "name": "_seller",
          "type": "address"
        },
        {
          "indexed": false,
          "internalType": "uint256",
          "name": "_amountETH",
          "type": "uint256"
        },
        {
          "indexed": false,
          "internalType": "uint256",
          "name": "_amountANQ",
          "type": "uint256"
        }
      ],
      "name": "SellTokens",
      "type": "event"
    },
    {
      "anonymous": false,
      "inputs": [
        {
          "indexed": false,
          "internalType": "string",
          "name": "_info",
          "type": "string"
        },
        {
          "indexed": false,
          "internalType": "uint256",
          "name": "_number",
          "type": "uint256"
        }
      ],
      "name": "logN",
      "type": "event"
    },
    {
      "inputs": [],
      "name": "anteqToken",
      "outputs": [
        {
          "internalType": "contract AnteqToken",
          "name": "",
          "type": "address"
        }
      ],
      "stateMutability": "view",
      "type": "function",
      "constant": true
    },
    {
      "inputs": [],
      "name": "liquidityFormula",
      "outputs": [
        {
          "internalType": "uint256",
          "name": "",
          "type": "uint256"
        }
      ],
      "stateMutability": "view",
      "type": "function",
      "constant": true
    },
    {
      "inputs": [],
      "name": "name",
      "outputs": [
        {
          "internalType": "string",
          "name": "",
          "type": "string"
        }
      ],
      "stateMutability": "view",
      "type": "function",
      "constant": true
    },
    {
      "inputs": [],
      "name": "owner",
      "outputs": [
        {
          "internalType": "address",
          "name": "",
          "type": "address"
        }
      ],
      "stateMutability": "view",
      "type": "function",
      "constant": true
    },
    {
      "inputs": [],
      "name": "renounceOwnership",
      "outputs": [],
      "stateMutability": "nonpayable",
      "type": "function"
    },
    {
      "inputs": [
        {
          "internalType": "address",
          "name": "newOwner",
          "type": "address"
        }
      ],
      "name": "transferOwnership",
      "outputs": [],
      "stateMutability": "nonpayable",
      "type": "function"
    },
    {
      "inputs": [
        {
          "internalType": "uint256",
          "name": "_tokenAmount",
          "type": "uint256"
        }
      ],
      "name": "addInitialLiquidity",
      "outputs": [],
      "stateMutability": "payable",
      "type": "function",
      "payable": true
    },
    {
      "inputs": [
        {
          "internalType": "contract AnteqToken",
          "name": "_token",
          "type": "address"
        }
      ],
      "name": "setTokenAddress",
      "outputs": [
        {
          "internalType": "bool",
          "name": "success",
          "type": "bool"
        }
      ],
      "stateMutability": "nonpayable",
      "type": "function"
    },
    {
      "inputs": [
        {
          "internalType": "uint256",
          "name": "_amountETHIn",
          "type": "uint256"
        },
        {
          "internalType": "uint256",
          "name": "_amountANQIn",
          "type": "uint256"
        }
      ],
      "name": "predirectExactOut",
      "outputs": [
        {
          "internalType": "uint256",
          "name": "amountOut",
          "type": "uint256"
        }
      ],
      "stateMutability": "view",
      "type": "function",
      "constant": true
    },
    {
      "inputs": [
        {
          "internalType": "uint256",
          "name": "_amountETHOut",
          "type": "uint256"
        },
        {
          "internalType": "uint256",
          "name": "_amountANQOut",
          "type": "uint256"
        }
      ],
      "name": "predirectExactIn",
      "outputs": [
        {
          "internalType": "uint256",
          "name": "amountIn",
          "type": "uint256"
        }
      ],
      "stateMutability": "view",
      "type": "function",
      "constant": true
    },
    {
      "inputs": [],
      "name": "swapExactETHForTokens",
      "outputs": [
        {
          "internalType": "bool",
          "name": "success",
          "type": "bool"
        }
      ],
      "stateMutability": "payable",
      "type": "function",
      "payable": true
    },
    {
      "inputs": [
        {
          "internalType": "uint256",
          "name": "_amountIn",
          "type": "uint256"
        }
      ],
      "name": "swapExactTokensforETH",
      "outputs": [
        {
          "internalType": "bool",
          "name": "success",
          "type": "bool"
        }
      ],
      "stateMutability": "nonpayable",
      "type": "function"
    },
    {
      "inputs": [
        {
          "internalType": "uint256",
          "name": "_amountOut",
          "type": "uint256"
        }
      ],
      "name": "swapTokensforExactETH",
      "outputs": [
        {
          "internalType": "bool",
          "name": "success",
          "type": "bool"
        }
      ],
      "stateMutability": "nonpayable",
      "type": "function"
    }
  ],
  "bytecode": "0x60806040526040518060400160405280600f81526020017f416e746571546f6b656e205377617000000000000000000000000000000000008152506003908051906020019062000051929190620001b9565b503480156200005f57600080fd5b5060405162002500380380620025008339818101604052810190620000859190620002e7565b620000a562000099620000ed60201b60201c565b620000f560201b60201c565b80600160006101000a81548173ffffffffffffffffffffffffffffffffffffffff021916908373ffffffffffffffffffffffffffffffffffffffff160217905550506200037e565b600033905090565b60008060009054906101000a900473ffffffffffffffffffffffffffffffffffffffff169050816000806101000a81548173ffffffffffffffffffffffffffffffffffffffff021916908373ffffffffffffffffffffffffffffffffffffffff1602179055508173ffffffffffffffffffffffffffffffffffffffff168173ffffffffffffffffffffffffffffffffffffffff167f8be0079c531659141344cd1fd0a4f28419497f9722a3daafe3b4186f6b6457e060405160405180910390a35050565b828054620001c79062000348565b90600052602060002090601f016020900481019282620001eb576000855562000237565b82601f106200020657805160ff191683800117855562000237565b8280016001018555821562000237579182015b828111156200023657825182559160200191906001019062000219565b5b5090506200024691906200024a565b5090565b5b80821115620002655760008160009055506001016200024b565b5090565b600080fd5b600073ffffffffffffffffffffffffffffffffffffffff82169050919050565b60006200029b826200026e565b9050919050565b6000620002af826200028e565b9050919050565b620002c181620002a2565b8114620002cd57600080fd5b50565b600081519050620002e181620002b6565b92915050565b6000602082840312156200030057620002ff62000269565b5b60006200031084828501620002d0565b91505092915050565b7f4e487b7100000000000000000000000000000000000000000000000000000000600052602260045260246000fd5b600060028204905060018216806200036157607f821691505b6020821081141562000378576200037762000319565b5b50919050565b612172806200038e6000396000f3fe6080604052600436106100c25760003560e01c8063715018a61161007f578063f0c04cb211610059578063f0c04cb21461026f578063f281cc14146102ac578063f2fde38b146102ca578063fe907c1f146102f3576100c2565b8063715018a6146102025780638da5cb5b14610219578063df765a4b14610244576100c2565b806306fdde03146100c757806326a4e8d2146100f257806341a22cc21461012f5780634a4007561461014b57806362ab73e9146101885780637103d719146101c5575b600080fd5b3480156100d357600080fd5b506100dc61031e565b6040516100e991906114e0565b60405180910390f35b3480156100fe57600080fd5b5061011960048036038101906101149190611577565b6103ac565b60405161012691906115bf565b60405180910390f35b61014960048036038101906101449190611610565b610474565b005b34801561015757600080fd5b50610172600480360381019061016d919061163d565b610611565b60405161017f919061168c565b60405180910390f35b34801561019457600080fd5b506101af60048036038101906101aa919061163d565b6106f7565b6040516101bc919061168c565b60405180910390f35b3480156101d157600080fd5b506101ec60048036038101906101e79190611610565b6107dd565b6040516101f991906115bf565b60405180910390f35b34801561020e57600080fd5b506102176109e0565b005b34801561022557600080fd5b5061022e610a68565b60405161023b91906116b6565b60405180910390f35b34801561025057600080fd5b50610259610a91565b604051610266919061168c565b60405180910390f35b34801561027b57600080fd5b5061029660048036038101906102919190611610565b610a97565b6040516102a391906115bf565b60405180910390f35b6102b4610c8e565b6040516102c191906115bf565b60405180910390f35b3480156102d657600080fd5b506102f160048036038101906102ec91906116fd565b610de0565b005b3480156102ff57600080fd5b50610308610ed8565b6040516103159190611789565b60405180910390f35b6003805461032b906117d3565b80601f0160208091040260200160405190810160405280929190818152602001828054610357906117d3565b80156103a45780601f10610379576101008083540402835291602001916103a4565b820191906000526020600020905b81548152906001019060200180831161038757829003601f168201915b505050505081565b60006103b6610efe565b73ffffffffffffffffffffffffffffffffffffffff166103d4610a68565b73ffffffffffffffffffffffffffffffffffffffff161461042a576040517f08c379a000000000000000000000000000000000000000000000000000000000815260040161042190611851565b60405180910390fd5b81600160006101000a81548173ffffffffffffffffffffffffffffffffffffffff021916908373ffffffffffffffffffffffffffffffffffffffff16021790555060019050919050565b600160009054906101000a900473ffffffffffffffffffffffffffffffffffffffff1673ffffffffffffffffffffffffffffffffffffffff166370a08231336040518263ffffffff1660e01b81526004016104cf91906116b6565b602060405180830381865afa1580156104ec573d6000803e3d6000fd5b505050506040513d601f19601f820116820180604052508101906105109190611886565b811115610552576040517f08c379a0000000000000000000000000000000000000000000000000000000008152600401610549906118ff565b60405180910390fd5b600160009054906101000a900473ffffffffffffffffffffffffffffffffffffffff1673ffffffffffffffffffffffffffffffffffffffff166323b872dd3330846040518463ffffffff1660e01b81526004016105b19392919061191f565b6020604051808303816000875af11580156105d0573d6000803e3d6000fd5b505050506040513d601f19601f820116820180604052508101906105f49190611982565b506106083482610f0690919063ffffffff16565b60028190555050565b600080600061061e610f1c565b9150915060008511806106315750600084115b610670576040517f08c379a0000000000000000000000000000000000000000000000000000000008152600401610667906119fb565b60405180910390fd5b600080861161067f5784610681565b855b905060008060008811610695578484610698565b83855b915091506106a7838383610fc4565b9550828110156106ec576040517f08c379a00000000000000000000000000000000000000000000000000000000081526004016106e390611a67565b60405180910390fd5b505050505092915050565b6000806000610704610f1c565b9150915060008511806107175750600084115b610756576040517f08c379a000000000000000000000000000000000000000000000000000000000815260040161074d90611ad3565b60405180910390fd5b60008086116107655784610767565b855b90506000806000881161077b57838561077e565b84845b9150915061078d838383611088565b9550858110156107d2576040517f08c379a00000000000000000000000000000000000000000000000000000000081526004016107c990611a67565b60405180910390fd5b505050505092915050565b60008060006107ea610f1c565b9150915060006107fb858385610fc4565b905081811115801561080d5750828511155b61084c576040517f08c379a000000000000000000000000000000000000000000000000000000000815260040161084390611b3f565b60405180910390fd5b6000610885610864838561114690919063ffffffff16565b610877888761115c90919063ffffffff16565b610f0690919063ffffffff16565b90506002548110156108cc576040517f08c379a00000000000000000000000000000000000000000000000000000000081526004016108c390611bab565b60405180910390fd5b600160009054906101000a900473ffffffffffffffffffffffffffffffffffffffff1673ffffffffffffffffffffffffffffffffffffffff166323b872dd3330856040518463ffffffff1660e01b815260040161092b9392919061191f565b6020604051808303816000875af115801561094a573d6000803e3d6000fd5b505050506040513d601f19601f8201168201806040525081019061096e9190611982565b5061097b86600033611172565b50806002819055503373ffffffffffffffffffffffffffffffffffffffff167fa24838acd4af5195a2396965dae5abf54e84e8c19f5698bb966ae64e29994ee587846040516109cb929190611bcb565b60405180910390a26001945050505050919050565b6109e8610efe565b73ffffffffffffffffffffffffffffffffffffffff16610a06610a68565b73ffffffffffffffffffffffffffffffffffffffff1614610a5c576040517f08c379a0000000000000000000000000000000000000000000000000000000008152600401610a5390611851565b60405180910390fd5b610a66600061136d565b565b60008060009054906101000a900473ffffffffffffffffffffffffffffffffffffffff16905090565b60025481565b6000806000610aa4610f1c565b915091506000610ab5858385611088565b905082811115610afa576040517f08c379a0000000000000000000000000000000000000000000000000000000008152600401610af190611c40565b60405180910390fd5b6000610b33610b12878561114690919063ffffffff16565b610b25848761115c90919063ffffffff16565b610f0690919063ffffffff16565b9050600254811015610b7a576040517f08c379a0000000000000000000000000000000000000000000000000000000008152600401610b7190611bab565b60405180910390fd5b600160009054906101000a900473ffffffffffffffffffffffffffffffffffffffff1673ffffffffffffffffffffffffffffffffffffffff166323b872dd3330896040518463ffffffff1660e01b8152600401610bd99392919061191f565b6020604051808303816000875af1158015610bf8573d6000803e3d6000fd5b505050506040513d601f19601f82011682018060405250810190610c1c9190611982565b50610c2982600033611172565b50806002819055503373ffffffffffffffffffffffffffffffffffffffff167fa24838acd4af5195a2396965dae5abf54e84e8c19f5698bb966ae64e29994ee58388604051610c79929190611bcb565b60405180910390a26001945050505050919050565b6000806000610c9b610f1c565b915091506000610cbe34610cb8348661115c90919063ffffffff16565b84611088565b905081811115610d03576040517f08c379a0000000000000000000000000000000000000000000000000000000008152600401610cfa90611cac565b60405180910390fd5b6000610d2a610d1b838561115c90919063ffffffff16565b85610f0690919063ffffffff16565b9050600254811015610d71576040517f08c379a0000000000000000000000000000000000000000000000000000000008152600401610d6890611bab565b60405180910390fd5b610d7d60008333611172565b50806002819055503373ffffffffffffffffffffffffffffffffffffffff167f0a37b72bb67eee30e09084cf386f8a17817c57f620c3ab95fb25d6a20356ec773484604051610dcd929190611bcb565b60405180910390a2600194505050505090565b610de8610efe565b73ffffffffffffffffffffffffffffffffffffffff16610e06610a68565b73ffffffffffffffffffffffffffffffffffffffff1614610e5c576040517f08c379a0000000000000000000000000000000000000000000000000000000008152600401610e5390611851565b60405180910390fd5b600073ffffffffffffffffffffffffffffffffffffffff168173ffffffffffffffffffffffffffffffffffffffff161415610ecc576040517f08c379a0000000000000000000000000000000000000000000000000000000008152600401610ec390611d3e565b60405180910390fd5b610ed58161136d565b50565b600160009054906101000a900473ffffffffffffffffffffffffffffffffffffffff1681565b600033905090565b60008183610f149190611d8d565b905092915050565b600080479150600160009054906101000a900473ffffffffffffffffffffffffffffffffffffffff1673ffffffffffffffffffffffffffffffffffffffff166370a08231306040518263ffffffff1660e01b8152600401610f7d91906116b6565b602060405180830381865afa158015610f9a573d6000803e3d6000fd5b505050506040513d601f19601f82011682018060405250810190610fbe9190611886565b90509091565b6000808411611008576040517f08c379a0000000000000000000000000000000000000000000000000000000008152600401610fff90611e59565b60405180910390fd5b60006110316103e86110238787610f0690919063ffffffff16565b610f0690919063ffffffff16565b9050600061105c6103e861104e888761115c90919063ffffffff16565b610f0690919063ffffffff16565b905061107d6001828461106f9190611ea8565b61114690919063ffffffff16565b925050509392505050565b60008084116110cc576040517f08c379a00000000000000000000000000000000000000000000000000000000081526004016110c390611f4b565b60405180910390fd5b60006110e36103e886610f0690919063ffffffff16565b905060006110fa8483610f0690919063ffffffff16565b90506000611125836111176103e889610f0690919063ffffffff16565b61114690919063ffffffff16565b905061113a818361143190919063ffffffff16565b93505050509392505050565b600081836111549190611f6b565b905092915050565b6000818361116a9190611fc1565b905092915050565b6000808411806111825750600083115b6111c1576040517f08c379a00000000000000000000000000000000000000000000000000000000081526004016111b8906119fb565b60405180910390fd5b600084111561127c5760008273ffffffffffffffffffffffffffffffffffffffff16856040516111f090612026565b60006040518083038185875af1925050503d806000811461122d576040519150601f19603f3d011682016040523d82523d6000602084013e611232565b606091505b5050905080611276576040517f08c379a000000000000000000000000000000000000000000000000000000000815260040161126d90612087565b60405180910390fd5b50611362565b6000600160009054906101000a900473ffffffffffffffffffffffffffffffffffffffff1673ffffffffffffffffffffffffffffffffffffffff1663a9059cbb84866040518363ffffffff1660e01b81526004016112db9291906120a7565b6020604051808303816000875af11580156112fa573d6000803e3d6000fd5b505050506040513d601f19601f8201168201806040525081019061131e9190611982565b905080611360576040517f08c379a00000000000000000000000000000000000000000000000000000000081526004016113579061211c565b60405180910390fd5b505b600190509392505050565b60008060009054906101000a900473ffffffffffffffffffffffffffffffffffffffff169050816000806101000a81548173ffffffffffffffffffffffffffffffffffffffff021916908373ffffffffffffffffffffffffffffffffffffffff1602179055508173ffffffffffffffffffffffffffffffffffffffff168173ffffffffffffffffffffffffffffffffffffffff167f8be0079c531659141344cd1fd0a4f28419497f9722a3daafe3b4186f6b6457e060405160405180910390a35050565b6000818361143f9190611ea8565b905092915050565b600081519050919050565b600082825260208201905092915050565b60005b83811015611481578082015181840152602081019050611466565b83811115611490576000848401525b50505050565b6000601f19601f8301169050919050565b60006114b282611447565b6114bc8185611452565b93506114cc818560208601611463565b6114d581611496565b840191505092915050565b600060208201905081810360008301526114fa81846114a7565b905092915050565b600080fd5b600073ffffffffffffffffffffffffffffffffffffffff82169050919050565b600061153282611507565b9050919050565b600061154482611527565b9050919050565b61155481611539565b811461155f57600080fd5b50565b6000813590506115718161154b565b92915050565b60006020828403121561158d5761158c611502565b5b600061159b84828501611562565b91505092915050565b60008115159050919050565b6115b9816115a4565b82525050565b60006020820190506115d460008301846115b0565b92915050565b6000819050919050565b6115ed816115da565b81146115f857600080fd5b50565b60008135905061160a816115e4565b92915050565b60006020828403121561162657611625611502565b5b6000611634848285016115fb565b91505092915050565b6000806040838503121561165457611653611502565b5b6000611662858286016115fb565b9250506020611673858286016115fb565b9150509250929050565b611686816115da565b82525050565b60006020820190506116a1600083018461167d565b92915050565b6116b081611527565b82525050565b60006020820190506116cb60008301846116a7565b92915050565b6116da81611527565b81146116e557600080fd5b50565b6000813590506116f7816116d1565b92915050565b60006020828403121561171357611712611502565b5b6000611721848285016116e8565b91505092915050565b6000819050919050565b600061174f61174a61174584611507565b61172a565b611507565b9050919050565b600061176182611734565b9050919050565b600061177382611756565b9050919050565b61178381611768565b82525050565b600060208201905061179e600083018461177a565b92915050565b7f4e487b7100000000000000000000000000000000000000000000000000000000600052602260045260246000fd5b600060028204905060018216806117eb57607f821691505b602082108114156117ff576117fe6117a4565b5b50919050565b7f4f776e61626c653a2063616c6c6572206973206e6f7420746865206f776e6572600082015250565b600061183b602083611452565b915061184682611805565b602082019050919050565b6000602082019050818103600083015261186a8161182e565b9050919050565b600081519050611880816115e4565b92915050565b60006020828403121561189c5761189b611502565b5b60006118aa84828501611871565b91505092915050565b7f4e6f7420656e6f7567687420414e51206f6e2077616c6c657400000000000000600082015250565b60006118e9601983611452565b91506118f4826118b3565b602082019050919050565b60006020820190508181036000830152611918816118dc565b9050919050565b600060608201905061193460008301866116a7565b61194160208301856116a7565b61194e604083018461167d565b949350505050565b61195f816115a4565b811461196a57600080fd5b50565b60008151905061197c81611956565b92915050565b60006020828403121561199857611997611502565b5b60006119a68482850161196d565b91505092915050565b7f496e76616c6964206f757420746f6b656e730000000000000000000000000000600082015250565b60006119e5601283611452565b91506119f0826119af565b602082019050919050565b60006020820190508181036000830152611a14816119d8565b9050919050565b7f496e76616c696420616d6f756e74206f66206f757420746f6b656e7300000000600082015250565b6000611a51601c83611452565b9150611a5c82611a1b565b602082019050919050565b60006020820190508181036000830152611a8081611a44565b9050919050565b7f496e76616c696420696e20746f6b656e73000000000000000000000000000000600082015250565b6000611abd601183611452565b9150611ac882611a87565b602082019050919050565b60006020820190508181036000830152611aec81611ab0565b9050919050565b7f4e6f7420656e6f7567687420746f6b656e7320696e2073776170000000000000600082015250565b6000611b29601a83611452565b9150611b3482611af3565b602082019050919050565b60006020820190508181036000830152611b5881611b1c565b9050919050565b7f496e76616c69642066696e616c20746f6b656e7320616d6f756e740000000000600082015250565b6000611b95601b83611452565b9150611ba082611b5f565b602082019050919050565b60006020820190508181036000830152611bc481611b88565b9050919050565b6000604082019050611be0600083018561167d565b611bed602083018461167d565b9392505050565b7f4e6f7420656e6f756768742045544820696e2073776170000000000000000000600082015250565b6000611c2a601783611452565b9150611c3582611bf4565b602082019050919050565b60006020820190508181036000830152611c5981611c1d565b9050919050565b7f4e6f7420656e6f7567687420414e5120746f6b656e7320696e20737761700000600082015250565b6000611c96601e83611452565b9150611ca182611c60565b602082019050919050565b60006020820190508181036000830152611cc581611c89565b9050919050565b7f4f776e61626c653a206e6577206f776e657220697320746865207a65726f206160008201527f6464726573730000000000000000000000000000000000000000000000000000602082015250565b6000611d28602683611452565b9150611d3382611ccc565b604082019050919050565b60006020820190508181036000830152611d5781611d1b565b9050919050565b7f4e487b7100000000000000000000000000000000000000000000000000000000600052601160045260246000fd5b6000611d98826115da565b9150611da3836115da565b9250817fffffffffffffffffffffffffffffffffffffffffffffffffffffffffffffffff0483118215151615611ddc57611ddb611d5e565b5b828202905092915050565b7f416d6f756e74206f6620746f6b656e7320696e2063616e27742062652065717560008201527f616c203000000000000000000000000000000000000000000000000000000000602082015250565b6000611e43602483611452565b9150611e4e82611de7565b604082019050919050565b60006020820190508181036000830152611e7281611e36565b9050919050565b7f4e487b7100000000000000000000000000000000000000000000000000000000600052601260045260246000fd5b6000611eb3826115da565b9150611ebe836115da565b925082611ece57611ecd611e79565b5b828204905092915050565b7f416d6f756e74206f6620746f6b656e7320696e2063616e27742062652065717560008201527f616c20302e000000000000000000000000000000000000000000000000000000602082015250565b6000611f35602583611452565b9150611f4082611ed9565b604082019050919050565b60006020820190508181036000830152611f6481611f28565b9050919050565b6000611f76826115da565b9150611f81836115da565b9250827fffffffffffffffffffffffffffffffffffffffffffffffffffffffffffffffff03821115611fb657611fb5611d5e565b5b828201905092915050565b6000611fcc826115da565b9150611fd7836115da565b925082821015611fea57611fe9611d5e565b5b828203905092915050565b600081905092915050565b50565b6000612010600083611ff5565b915061201b82612000565b600082019050919050565b600061203182612003565b9150819050919050565b7f4661696c656420746f2073656e64204574686572000000000000000000000000600082015250565b6000612071601483611452565b915061207c8261203b565b602082019050919050565b600060208201905081810360008301526120a081612064565b9050919050565b60006040820190506120bc60008301856116a7565b6120c9602083018461167d565b9392505050565b7f4661696c656420746f2073656e6420416e746571546f6b656e00000000000000600082015250565b6000612106601983611452565b9150612111826120d0565b602082019050919050565b60006020820190508181036000830152612135816120f9565b905091905056fea2646970667358221220d02f0f5e877e2f2c594890f0093038e06585ae720b98c6b74702a83a5cf1afc664736f6c634300080b0033",
  "immutableReferences": {},
  "source": "// SPDX-License-Identifier: MIT\r\npragma solidity ^0.8.0;\r\n\r\nimport \"@openzeppelin/contracts/access/Ownable.sol\";\r\nimport \"@openzeppelin/contracts/utils/math/SafeMath.sol\";\r\nimport \"./AnteqToken.sol\";\r\n\r\ncontract ANQSwap is Ownable {\r\n\tusing SafeMath for uint256;\r\n\r\n\tAnteqToken public anteqToken;\r\n\tuint256 public liquidityFormula;\r\n\tstring public name = \"AnteqToken Swap\";\r\n\r\n\tconstructor(AnteqToken _token) {\r\n\t\tanteqToken = _token;\r\n\t}\r\n\r\n\tevent BuyTokens(address indexed _buyer, uint256 _amountETH, uint256 _amountANQ);\r\n\tevent SellTokens(address indexed _seller, uint256 _amountETH, uint256 _amountANQ);\r\n\tevent logN(string _info, uint256 _number);\r\n\r\n\tfunction addInitialLiquidity(uint256 _tokenAmount) external payable {\r\n\t\trequire(_tokenAmount <= anteqToken.balanceOf(msg.sender), \"Not enought ANQ on wallet\");\r\n\t\tanteqToken.transferFrom(msg.sender, address(this), _tokenAmount);\r\n\t\tliquidityFormula = _tokenAmount.mul(msg.value);\r\n\t}\r\n\r\n\tfunction setTokenAddress(AnteqToken _token) external onlyOwner returns (bool success) {\r\n\t\tanteqToken = _token;\r\n\t\treturn true;\r\n\t}\r\n\r\n\t// TODO replace code to recognize by address if this is buy or sell transaction if it possible ?\r\n\t// Add require to one tokens amount must be 0\r\n\tfunction predirectExactOut(uint256 _amountETHIn, uint256 _amountANQIn) external view returns (uint256 amountOut) {\r\n\t\t(uint256 reserve0, uint256 reserve1) = _getReserve();\r\n\r\n\t\trequire(_amountETHIn > 0 || _amountANQIn > 0, \"Invalid in tokens\");\r\n\r\n\t\t// Check which token will in\r\n\t\tuint256 amountIn = _amountETHIn > 0 ? _amountETHIn : _amountANQIn;\r\n\t\t(uint256 reserveIn, uint256 reserveOut) = _amountETHIn > 0 ? (reserve0, reserve1) : (reserve1, reserve0);\r\n\t\tamountOut = _getAmountOut(amountIn, reserveIn, reserveOut);\r\n\t\trequire(reserveOut >= amountOut, \"Invalid amount of out tokens\");\r\n\t}\r\n\r\n\tfunction predirectExactIn(uint256 _amountETHOut, uint256 _amountANQOut) external view returns (uint256 amountIn) {\r\n\t\t(uint256 reserve0, uint256 reserve1) = _getReserve();\r\n\t\trequire(_amountETHOut > 0 || _amountANQOut > 0, \"Invalid out tokens\");\r\n\r\n\t\t// Check which token will be incoming\r\n\t\tuint256 amountOut = _amountETHOut > 0 ? _amountETHOut : _amountANQOut;\r\n\t\t(uint256 reserveIn, uint256 reserveOut) = _amountETHOut > 0 ? (reserve1, reserve0) : (reserve0, reserve1);\r\n\t\tamountIn = _getAmountIn(amountOut, reserveIn, reserveOut);\r\n\t\trequire(reserveOut >= amountOut, \"Invalid amount of out tokens\");\r\n\t}\r\n\r\n\tfunction _getReserve() internal view returns (uint256 reserve0, uint256 reserve1) {\r\n\t\treserve0 = address(this).balance;\r\n\t\treserve1 = anteqToken.balanceOf(address(this));\r\n\t}\r\n\r\n\tfunction _getAmountOut(\r\n\t\tuint256 _amountTokenIn,\r\n\t\tuint256 _reserveIn,\r\n\t\tuint256 _reserveOut\r\n\t) internal pure returns (uint256 amountTokenOut) {\r\n\t\trequire(_amountTokenIn > 0, \"Amount of tokens in can't be equal 0.\");\r\n\r\n\t\t// amountTokenOut = (_reserveOut * _amountTokenIn) / (_reserveIn + _amountTokenIn);\r\n\r\n\t\tuint256 amountInWithoutFee = _amountTokenIn.mul(1000); // With fee 0,3% ==> mul(997)\r\n\t\tuint256 numerator = amountInWithoutFee.mul(_reserveOut);\r\n\t\tuint256 denominator = _reserveIn.mul(1000).add(amountInWithoutFee);\r\n\t\tamountTokenOut = numerator.div(denominator);\r\n\t}\r\n\r\n\tfunction _getAmountIn(\r\n\t\tuint256 _amountTokenOut,\r\n\t\tuint256 _reserveIn,\r\n\t\tuint256 _reserveOut\r\n\t) internal pure returns (uint256 amountTokenIn) {\r\n\t\trequire(_amountTokenOut > 0, \"Amount of tokens in can't be equal 0\");\r\n\r\n\t\tuint256 numerator = _reserveIn.mul(_amountTokenOut).mul(1000);\r\n\t\tuint256 denominator = _reserveOut.sub(_amountTokenOut).mul(1000);\r\n\t\t// amountTokenIn = (numerator / denominator);\r\n\t\tamountTokenIn = (numerator / denominator).add(1);\r\n\t}\r\n\r\n\tfunction _swap(\r\n\t\tuint256 _amountETHOut,\r\n\t\tuint256 _amountANQOut,\r\n\t\taddress _to\r\n\t) internal returns (bool success) {\r\n\t\trequire(_amountETHOut > 0 || _amountANQOut > 0, \"Invalid out tokens\");\r\n\r\n\t\tif (_amountETHOut > 0) {\r\n\t\t\t(bool sent, ) = _to.call{ value: _amountETHOut }(\"\");\r\n\t\t\trequire(sent, \"Failed to send Ether\");\r\n\t\t} else {\r\n\t\t\tbool sent = anteqToken.transfer(_to, _amountANQOut);\r\n\t\t\trequire(sent, \"Failed to send AnteqToken\");\r\n\t\t}\r\n\t\treturn true;\r\n\t}\r\n\r\n\t// swapExactETHForTokens and swapETHForExactTokens is same becouse can't trigger transfer ETH from account by smart contract, so user must himself tsend ETH to contract\r\n\tfunction swapExactETHForTokens() external payable returns (bool success) {\r\n\t\t(uint256 reserve0, uint256 reserve1) = _getReserve();\r\n\r\n\t\tuint256 amountANQOut = _getAmountOut(msg.value, reserve0.sub(msg.value), reserve1);\r\n\t\trequire(amountANQOut <= reserve1, \"Not enought ANQ tokens in swap\");\r\n\r\n\t\tuint256 newLiquidityFormula = reserve0.mul(reserve1.sub(amountANQOut));\r\n\t\trequire(newLiquidityFormula >= liquidityFormula, \"Invalid final tokens amount\");\r\n\r\n\t\t_swap(uint256(0), amountANQOut, msg.sender);\r\n\t\tliquidityFormula = newLiquidityFormula;\r\n\t\temit BuyTokens(msg.sender, msg.value, amountANQOut);\r\n\t\treturn true;\r\n\t}\r\n\r\n\tfunction swapExactTokensforETH(uint256 _amountIn) external returns (bool success) {\r\n\t\t(uint256 reserve0, uint256 reserve1) = _getReserve();\r\n\r\n\t\tuint256 amountETHOut = _getAmountOut(_amountIn, reserve1, reserve0);\r\n\r\n\t\trequire(amountETHOut <= reserve0, \"Not enought ETH in swap\");\r\n\r\n\t\tuint256 newLiquidityFormula = reserve0.sub(amountETHOut).mul(reserve1.add(_amountIn));\r\n\t\trequire(newLiquidityFormula >= liquidityFormula, \"Invalid final tokens amount\");\r\n\r\n\t\tanteqToken.transferFrom(msg.sender, address(this), _amountIn);\r\n\t\t_swap(amountETHOut, uint256(0), msg.sender);\r\n\t\tliquidityFormula = newLiquidityFormula;\r\n\t\temit SellTokens(msg.sender, amountETHOut, _amountIn);\r\n\t\treturn true;\r\n\t}\r\n\r\n\tfunction swapTokensforExactETH(uint256 _amountOut) external returns (bool success) {\r\n\t\t(uint256 reserve0, uint256 reserve1) = _getReserve();\r\n\r\n\t\tuint256 amountANQIn = _getAmountIn(_amountOut, reserve1, reserve0);\r\n\r\n\t\trequire((amountANQIn <= reserve1) && (_amountOut <= reserve0), \"Not enought tokens in swap\");\r\n\r\n\t\tuint256 newLiquidityFormula = reserve0.sub(_amountOut).mul(reserve1.add(amountANQIn));\r\n\t\trequire(newLiquidityFormula >= liquidityFormula, \"Invalid final tokens amount\");\r\n\r\n\t\tanteqToken.transferFrom(msg.sender, address(this), amountANQIn);\r\n\t\t_swap(_amountOut, uint256(0), msg.sender);\r\n\t\tliquidityFormula = newLiquidityFormula;\r\n\t\temit SellTokens(msg.sender, _amountOut, amountANQIn);\r\n\t\treturn true;\r\n\t}\r\n}\r\n",
  "sourcePath": "D:\\programming\\ANQSwap\\contracts\\ANQSwap.sol",
  "compiler": {
    "name": "solc",
    "version": "0.8.11+commit.d7f03943.Emscripten.clang"
  },
  "schemaVersion": "3.4.4",
  "updatedAt": "2022-02-12T17:05:10.838Z",
  "networkType": "ethereum",
  "devdoc": {
    "kind": "dev",
    "methods": {
      "owner()": {
        "details": "Returns the address of the current owner."
      },
      "renounceOwnership()": {
        "details": "Leaves the contract without owner. It will not be possible to call `onlyOwner` functions anymore. Can only be called by the current owner. NOTE: Renouncing ownership will leave the contract without an owner, thereby removing any functionality that is only available to the owner."
      },
      "transferOwnership(address)": {
        "details": "Transfers ownership of the contract to a new account (`newOwner`). Can only be called by the current owner."
      }
    },
    "version": 1
  },
  "userdoc": {
    "kind": "user",
    "methods": {},
    "version": 1
  }
}