{
  "contractName": "ANQSwap",
  "abi": [
    {
      "inputs": [
        {
          "internalType": "contract AnteqToken",
          "name": "_token",
          "type": "address"
        }
      ],
      "stateMutability": "nonpayable",
      "type": "constructor"
    },
    {
      "anonymous": false,
      "inputs": [
        {
          "indexed": true,
          "internalType": "address",
          "name": "_buyer",
          "type": "address"
        },
        {
          "indexed": false,
          "internalType": "uint256",
          "name": "_amount",
          "type": "uint256"
        }
      ],
      "name": "BuyTokens",
      "type": "event"
    },
    {
      "anonymous": false,
      "inputs": [
        {
          "indexed": true,
          "internalType": "address",
          "name": "previousOwner",
          "type": "address"
        },
        {
          "indexed": true,
          "internalType": "address",
          "name": "newOwner",
          "type": "address"
        }
      ],
      "name": "OwnershipTransferred",
      "type": "event"
    },
    {
      "anonymous": false,
      "inputs": [
        {
          "indexed": true,
          "internalType": "address",
          "name": "_seller",
          "type": "address"
        },
        {
          "indexed": false,
          "internalType": "uint256",
          "name": "_amount",
          "type": "uint256"
        }
      ],
      "name": "SellTokens",
      "type": "event"
    },
    {
      "inputs": [],
      "name": "anteqToken",
      "outputs": [
        {
          "internalType": "contract AnteqToken",
          "name": "",
          "type": "address"
        }
      ],
      "stateMutability": "view",
      "type": "function"
    },
    {
      "inputs": [],
      "name": "name",
      "outputs": [
        {
          "internalType": "string",
          "name": "",
          "type": "string"
        }
      ],
      "stateMutability": "view",
      "type": "function"
    },
    {
      "inputs": [],
      "name": "owner",
      "outputs": [
        {
          "internalType": "address",
          "name": "",
          "type": "address"
        }
      ],
      "stateMutability": "view",
      "type": "function"
    },
    {
      "inputs": [],
      "name": "renounceOwnership",
      "outputs": [],
      "stateMutability": "nonpayable",
      "type": "function"
    },
    {
      "inputs": [],
      "name": "totalLiquidity",
      "outputs": [
        {
          "internalType": "uint256",
          "name": "",
          "type": "uint256"
        }
      ],
      "stateMutability": "view",
      "type": "function"
    },
    {
      "inputs": [
        {
          "internalType": "address",
          "name": "newOwner",
          "type": "address"
        }
      ],
      "name": "transferOwnership",
      "outputs": [],
      "stateMutability": "nonpayable",
      "type": "function"
    },
    {
      "inputs": [
        {
          "internalType": "uint256",
          "name": "_tokenAmount",
          "type": "uint256"
        }
      ],
      "name": "addInitialLiquidity",
      "outputs": [
        {
          "internalType": "uint256",
          "name": "_totalLiquidity",
          "type": "uint256"
        }
      ],
      "stateMutability": "payable",
      "type": "function"
    },
    {
      "inputs": [
        {
          "internalType": "contract AnteqToken",
          "name": "_token",
          "type": "address"
        }
      ],
      "name": "changeTokenAddress",
      "outputs": [
        {
          "internalType": "bool",
          "name": "success",
          "type": "bool"
        }
      ],
      "stateMutability": "nonpayable",
      "type": "function"
    }
  ],
  "bytecode": "0x60806040526040518060400160405280600f81526020017f416e746571546f6b656e205377617000000000000000000000000000000000008152506003908051906020019062000051929190620001b9565b503480156200005f57600080fd5b506040516200123c3803806200123c8339818101604052810190620000859190620002e7565b620000a562000099620000ed60201b60201c565b620000f560201b60201c565b80600160006101000a81548173ffffffffffffffffffffffffffffffffffffffff021916908373ffffffffffffffffffffffffffffffffffffffff160217905550506200037e565b600033905090565b60008060009054906101000a900473ffffffffffffffffffffffffffffffffffffffff169050816000806101000a81548173ffffffffffffffffffffffffffffffffffffffff021916908373ffffffffffffffffffffffffffffffffffffffff1602179055508173ffffffffffffffffffffffffffffffffffffffff168173ffffffffffffffffffffffffffffffffffffffff167f8be0079c531659141344cd1fd0a4f28419497f9722a3daafe3b4186f6b6457e060405160405180910390a35050565b828054620001c79062000348565b90600052602060002090601f016020900481019282620001eb576000855562000237565b82601f106200020657805160ff191683800117855562000237565b8280016001018555821562000237579182015b828111156200023657825182559160200191906001019062000219565b5b5090506200024691906200024a565b5090565b5b80821115620002655760008160009055506001016200024b565b5090565b600080fd5b600073ffffffffffffffffffffffffffffffffffffffff82169050919050565b60006200029b826200026e565b9050919050565b6000620002af826200028e565b9050919050565b620002c181620002a2565b8114620002cd57600080fd5b50565b600081519050620002e181620002b6565b92915050565b6000602082840312156200030057620002ff62000269565b5b60006200031084828501620002d0565b91505092915050565b7f4e487b7100000000000000000000000000000000000000000000000000000000600052602260045260246000fd5b600060028204905060018216806200036157607f821691505b6020821081141562000378576200037762000319565b5b50919050565b610eae806200038e6000396000f3fe60806040526004361061007b5760003560e01c80638da5cb5b1161004e5780638da5cb5b1461011d578063c9cda91f14610148578063f2fde38b14610185578063fe907c1f146101ae5761007b565b806306fdde031461008057806315770f92146100ab57806341a22cc2146100d6578063715018a614610106575b600080fd5b34801561008c57600080fd5b506100956101d9565b6040516100a29190610862565b60405180910390f35b3480156100b757600080fd5b506100c0610267565b6040516100cd919061089d565b60405180910390f35b6100f060048036038101906100eb91906108e9565b61026d565b6040516100fd919061089d565b60405180910390f35b34801561011257600080fd5b5061011b610466565b005b34801561012957600080fd5b506101326104ee565b60405161013f9190610957565b60405180910390f35b34801561015457600080fd5b5061016f600480360381019061016a91906109b0565b610517565b60405161017c91906109f8565b60405180910390f35b34801561019157600080fd5b506101ac60048036038101906101a79190610a3f565b6105df565b005b3480156101ba57600080fd5b506101c36106d7565b6040516101d09190610acb565b60405180910390f35b600380546101e690610b15565b80601f016020809104026020016040519081016040528092919081815260200182805461021290610b15565b801561025f5780601f106102345761010080835404028352916020019161025f565b820191906000526020600020905b81548152906001019060200180831161024257829003601f168201915b505050505081565b60025481565b60003373ffffffffffffffffffffffffffffffffffffffff16313411156102c9576040517f08c379a00000000000000000000000000000000000000000000000000000000081526004016102c090610b93565b60405180910390fd5b600160009054906101000a900473ffffffffffffffffffffffffffffffffffffffff1673ffffffffffffffffffffffffffffffffffffffff166370a08231336040518263ffffffff1660e01b81526004016103249190610957565b602060405180830381865afa158015610341573d6000803e3d6000fd5b505050506040513d601f19601f820116820180604052508101906103659190610bc8565b8211156103a7576040517f08c379a000000000000000000000000000000000000000000000000000000000815260040161039e90610c41565b60405180910390fd5b600160009054906101000a900473ffffffffffffffffffffffffffffffffffffffff1673ffffffffffffffffffffffffffffffffffffffff166323b872dd3330856040518463ffffffff1660e01b815260040161040693929190610c61565b6020604051808303816000875af1158015610425573d6000803e3d6000fd5b505050506040513d601f19601f820116820180604052508101906104499190610cc4565b5034826104569190610d20565b6002819055506002549050919050565b61046e6106fd565b73ffffffffffffffffffffffffffffffffffffffff1661048c6104ee565b73ffffffffffffffffffffffffffffffffffffffff16146104e2576040517f08c379a00000000000000000000000000000000000000000000000000000000081526004016104d990610dc6565b60405180910390fd5b6104ec6000610705565b565b60008060009054906101000a900473ffffffffffffffffffffffffffffffffffffffff16905090565b60006105216106fd565b73ffffffffffffffffffffffffffffffffffffffff1661053f6104ee565b73ffffffffffffffffffffffffffffffffffffffff1614610595576040517f08c379a000000000000000000000000000000000000000000000000000000000815260040161058c90610dc6565b60405180910390fd5b81600160006101000a81548173ffffffffffffffffffffffffffffffffffffffff021916908373ffffffffffffffffffffffffffffffffffffffff16021790555060019050919050565b6105e76106fd565b73ffffffffffffffffffffffffffffffffffffffff166106056104ee565b73ffffffffffffffffffffffffffffffffffffffff161461065b576040517f08c379a000000000000000000000000000000000000000000000000000000000815260040161065290610dc6565b60405180910390fd5b600073ffffffffffffffffffffffffffffffffffffffff168173ffffffffffffffffffffffffffffffffffffffff1614156106cb576040517f08c379a00000000000000000000000000000000000000000000000000000000081526004016106c290610e58565b60405180910390fd5b6106d481610705565b50565b600160009054906101000a900473ffffffffffffffffffffffffffffffffffffffff1681565b600033905090565b60008060009054906101000a900473ffffffffffffffffffffffffffffffffffffffff169050816000806101000a81548173ffffffffffffffffffffffffffffffffffffffff021916908373ffffffffffffffffffffffffffffffffffffffff1602179055508173ffffffffffffffffffffffffffffffffffffffff168173ffffffffffffffffffffffffffffffffffffffff167f8be0079c531659141344cd1fd0a4f28419497f9722a3daafe3b4186f6b6457e060405160405180910390a35050565b600081519050919050565b600082825260208201905092915050565b60005b838110156108035780820151818401526020810190506107e8565b83811115610812576000848401525b50505050565b6000601f19601f8301169050919050565b6000610834826107c9565b61083e81856107d4565b935061084e8185602086016107e5565b61085781610818565b840191505092915050565b6000602082019050818103600083015261087c8184610829565b905092915050565b6000819050919050565b61089781610884565b82525050565b60006020820190506108b2600083018461088e565b92915050565b600080fd5b6108c681610884565b81146108d157600080fd5b50565b6000813590506108e3816108bd565b92915050565b6000602082840312156108ff576108fe6108b8565b5b600061090d848285016108d4565b91505092915050565b600073ffffffffffffffffffffffffffffffffffffffff82169050919050565b600061094182610916565b9050919050565b61095181610936565b82525050565b600060208201905061096c6000830184610948565b92915050565b600061097d82610936565b9050919050565b61098d81610972565b811461099857600080fd5b50565b6000813590506109aa81610984565b92915050565b6000602082840312156109c6576109c56108b8565b5b60006109d48482850161099b565b91505092915050565b60008115159050919050565b6109f2816109dd565b82525050565b6000602082019050610a0d60008301846109e9565b92915050565b610a1c81610936565b8114610a2757600080fd5b50565b600081359050610a3981610a13565b92915050565b600060208284031215610a5557610a546108b8565b5b6000610a6384828501610a2a565b91505092915050565b6000819050919050565b6000610a91610a8c610a8784610916565b610a6c565b610916565b9050919050565b6000610aa382610a76565b9050919050565b6000610ab582610a98565b9050919050565b610ac581610aaa565b82525050565b6000602082019050610ae06000830184610abc565b92915050565b7f4e487b7100000000000000000000000000000000000000000000000000000000600052602260045260246000fd5b60006002820490506001821680610b2d57607f821691505b60208210811415610b4157610b40610ae6565b5b50919050565b7f4e6f7420656e6f7567687420455448206f6e2077616c6c657400000000000000600082015250565b6000610b7d6019836107d4565b9150610b8882610b47565b602082019050919050565b60006020820190508181036000830152610bac81610b70565b9050919050565b600081519050610bc2816108bd565b92915050565b600060208284031215610bde57610bdd6108b8565b5b6000610bec84828501610bb3565b91505092915050565b7f4e6f7420656e6f7567687420414e51206f6e2077616c6c657400000000000000600082015250565b6000610c2b6019836107d4565b9150610c3682610bf5565b602082019050919050565b60006020820190508181036000830152610c5a81610c1e565b9050919050565b6000606082019050610c766000830186610948565b610c836020830185610948565b610c90604083018461088e565b949350505050565b610ca1816109dd565b8114610cac57600080fd5b50565b600081519050610cbe81610c98565b92915050565b600060208284031215610cda57610cd96108b8565b5b6000610ce884828501610caf565b91505092915050565b7f4e487b7100000000000000000000000000000000000000000000000000000000600052601160045260246000fd5b6000610d2b82610884565b9150610d3683610884565b9250817fffffffffffffffffffffffffffffffffffffffffffffffffffffffffffffffff0483118215151615610d6f57610d6e610cf1565b5b828202905092915050565b7f4f776e61626c653a2063616c6c6572206973206e6f7420746865206f776e6572600082015250565b6000610db06020836107d4565b9150610dbb82610d7a565b602082019050919050565b60006020820190508181036000830152610ddf81610da3565b9050919050565b7f4f776e61626c653a206e6577206f776e657220697320746865207a65726f206160008201527f6464726573730000000000000000000000000000000000000000000000000000602082015250565b6000610e426026836107d4565b9150610e4d82610de6565b604082019050919050565b60006020820190508181036000830152610e7181610e35565b905091905056fea264697066735822122064032de21a4069dd92628c1b6e43979172447bf154b9d1639da70d91165c8f3164736f6c634300080b0033",
  "immutableReferences": {},
  "source": "// SPDX-License-Identifier: MIT\r\npragma solidity ^0.8.0;\r\n\r\nimport \"@openzeppelin/contracts/access/Ownable.sol\";\r\nimport \"./AnteqToken.sol\";\r\n\r\ncontract ANQSwap is Ownable {\r\n    AnteqToken public anteqToken;\r\n    uint256 public totalLiquidity;\r\n    string public name = \"AnteqToken Swap\";\r\n\r\n    constructor(AnteqToken _token) {\r\n        anteqToken = _token;\r\n    }\r\n\r\n    event BuyTokens(address indexed _buyer, uint256 _amount);\r\n    event SellTokens(address indexed _seller, uint256 _amount);\r\n\r\n    function addInitialLiquidity(uint256 _tokenAmount)external payable returns(uint256 _totalLiquidity){\r\n        require(msg.value <= msg.sender.balance, 'Not enought ETH on wallet');\r\n        require(_tokenAmount <= anteqToken.balanceOf(msg.sender), 'Not enought ANQ on wallet');\r\n        anteqToken.transferFrom(msg.sender, address(this), _tokenAmount);\r\n        totalLiquidity = _tokenAmount * msg.value;\r\n        return totalLiquidity;\r\n    }\r\n    \r\n    function changeTokenAddress(AnteqToken _token)\r\n        external\r\n        onlyOwner\r\n        returns (bool success)\r\n    {\r\n        anteqToken = _token;\r\n        return true;\r\n    }\r\n\r\n    // function buyTokens() external payable {\r\n    //     uint256 amountANQ = msg.value * rate;\r\n    //     require(\r\n    //         anteqToken.balanceOf(address(this)) >= amountANQ,\r\n    //         \"AnteqToken Swap havn't enought ANQ.\"\r\n    //     );\r\n    //     anteqToken.transfer(msg.sender, amountANQ);\r\n    //     emit BuyTokens(msg.sender, amountANQ);\r\n    // }\r\n\r\n    // function sellTokens(uint256 _value) public {\r\n    //     require(\r\n    //         anteqToken.balanceOf(msg.sender) >= _value,\r\n    //         \"You doesn't have enought AnteqToken.\"\r\n    //     );\r\n    //     uint256 etherToSendBack = _value / rate;\r\n    //     require(\r\n    //         address(this).balance >= etherToSendBack,\r\n    //         \"AnteqToken Swap doesn't have enought Ether to buy yours token.\"\r\n    //     );\r\n    //     anteqToken.transferFrom(msg.sender, address(this), _value);\r\n    //     payable(msg.sender).transfer(etherToSendBack);\r\n    //     emit SellTokens(msg.sender, _value);\r\n    // }\r\n\r\n    // ADD WITHDRAW FUNCION\r\n    // function withdraw() external onlyOwner returns (bool success){\r\n    //     payable(owner().address).transfer();\r\n    // }\r\n}\r\n",
  "sourcePath": "D:\\programming\\tailwind test\\contracts\\ANQSwap.sol",
  "compiler": {
    "name": "solc",
    "version": "0.8.11+commit.d7f03943.Emscripten.clang"
  },
  "schemaVersion": "3.4.4",
  "updatedAt": "2022-01-27T17:22:24.517Z",
  "devdoc": {
    "kind": "dev",
    "methods": {
      "owner()": {
        "details": "Returns the address of the current owner."
      },
      "renounceOwnership()": {
        "details": "Leaves the contract without owner. It will not be possible to call `onlyOwner` functions anymore. Can only be called by the current owner. NOTE: Renouncing ownership will leave the contract without an owner, thereby removing any functionality that is only available to the owner."
      },
      "transferOwnership(address)": {
        "details": "Transfers ownership of the contract to a new account (`newOwner`). Can only be called by the current owner."
      }
    },
    "version": 1
  },
  "userdoc": {
    "kind": "user",
    "methods": {},
    "version": 1
  }
}