{
  "contractName": "ANQSwap",
  "abi": [
    {
      "inputs": [
        {
          "internalType": "contract AnteqToken",
          "name": "_token",
          "type": "address"
        },
        {
          "internalType": "uint256",
          "name": "_rate",
          "type": "uint256"
        }
      ],
      "stateMutability": "nonpayable",
      "type": "constructor"
    },
    {
      "anonymous": false,
      "inputs": [
        {
          "indexed": true,
          "internalType": "address",
          "name": "_buyer",
          "type": "address"
        },
        {
          "indexed": false,
          "internalType": "uint256",
          "name": "_amount",
          "type": "uint256"
        }
      ],
      "name": "BuyTokens",
      "type": "event"
    },
    {
      "anonymous": false,
      "inputs": [
        {
          "indexed": true,
          "internalType": "address",
          "name": "previousOwner",
          "type": "address"
        },
        {
          "indexed": true,
          "internalType": "address",
          "name": "newOwner",
          "type": "address"
        }
      ],
      "name": "OwnershipTransferred",
      "type": "event"
    },
    {
      "anonymous": false,
      "inputs": [
        {
          "indexed": true,
          "internalType": "address",
          "name": "_seller",
          "type": "address"
        },
        {
          "indexed": false,
          "internalType": "uint256",
          "name": "_amount",
          "type": "uint256"
        }
      ],
      "name": "SellTokens",
      "type": "event"
    },
    {
      "inputs": [],
      "name": "anteqToken",
      "outputs": [
        {
          "internalType": "contract AnteqToken",
          "name": "",
          "type": "address"
        }
      ],
      "stateMutability": "view",
      "type": "function",
      "constant": true
    },
    {
      "inputs": [],
      "name": "name",
      "outputs": [
        {
          "internalType": "string",
          "name": "",
          "type": "string"
        }
      ],
      "stateMutability": "view",
      "type": "function",
      "constant": true
    },
    {
      "inputs": [],
      "name": "owner",
      "outputs": [
        {
          "internalType": "address",
          "name": "",
          "type": "address"
        }
      ],
      "stateMutability": "view",
      "type": "function",
      "constant": true
    },
    {
      "inputs": [],
      "name": "rate",
      "outputs": [
        {
          "internalType": "uint256",
          "name": "",
          "type": "uint256"
        }
      ],
      "stateMutability": "view",
      "type": "function",
      "constant": true
    },
    {
      "inputs": [],
      "name": "renounceOwnership",
      "outputs": [],
      "stateMutability": "nonpayable",
      "type": "function"
    },
    {
      "inputs": [
        {
          "internalType": "address",
          "name": "newOwner",
          "type": "address"
        }
      ],
      "name": "transferOwnership",
      "outputs": [],
      "stateMutability": "nonpayable",
      "type": "function"
    },
    {
      "inputs": [
        {
          "internalType": "contract AnteqToken",
          "name": "_token",
          "type": "address"
        }
      ],
      "name": "setTokenAddress",
      "outputs": [
        {
          "internalType": "bool",
          "name": "success",
          "type": "bool"
        }
      ],
      "stateMutability": "nonpayable",
      "type": "function"
    },
    {
      "inputs": [],
      "name": "buyTokens",
      "outputs": [],
      "stateMutability": "payable",
      "type": "function",
      "payable": true
    },
    {
      "inputs": [
        {
          "internalType": "uint256",
          "name": "_value",
          "type": "uint256"
        }
      ],
      "name": "sellTokens",
      "outputs": [],
      "stateMutability": "nonpayable",
      "type": "function"
    }
  ],
  "bytecode": "0x60806040526040518060400160405280600f81526020017f416e746571546f6b656e205377617000000000000000000000000000000000008152506003908051906020019062000051929190620001c1565b503480156200005f57600080fd5b50604051620016613803806200166183398181016040528101906200008591906200032a565b620000a562000099620000f560201b60201c565b620000fd60201b60201c565b81600160006101000a81548173ffffffffffffffffffffffffffffffffffffffff021916908373ffffffffffffffffffffffffffffffffffffffff160217905550806002819055505050620003d6565b600033905090565b60008060009054906101000a900473ffffffffffffffffffffffffffffffffffffffff169050816000806101000a81548173ffffffffffffffffffffffffffffffffffffffff021916908373ffffffffffffffffffffffffffffffffffffffff1602179055508173ffffffffffffffffffffffffffffffffffffffff168173ffffffffffffffffffffffffffffffffffffffff167f8be0079c531659141344cd1fd0a4f28419497f9722a3daafe3b4186f6b6457e060405160405180910390a35050565b828054620001cf90620003a0565b90600052602060002090601f016020900481019282620001f357600085556200023f565b82601f106200020e57805160ff19168380011785556200023f565b828001600101855582156200023f579182015b828111156200023e57825182559160200191906001019062000221565b5b5090506200024e919062000252565b5090565b5b808211156200026d57600081600090555060010162000253565b5090565b600080fd5b600073ffffffffffffffffffffffffffffffffffffffff82169050919050565b6000620002a38262000276565b9050919050565b6000620002b78262000296565b9050919050565b620002c981620002aa565b8114620002d557600080fd5b50565b600081519050620002e981620002be565b92915050565b6000819050919050565b6200030481620002ef565b81146200031057600080fd5b50565b6000815190506200032481620002f9565b92915050565b6000806040838503121562000344576200034362000271565b5b60006200035485828601620002d8565b9250506020620003678582860162000313565b9150509250929050565b7f4e487b7100000000000000000000000000000000000000000000000000000000600052602260045260246000fd5b60006002820490506001821680620003b957607f821691505b60208210811415620003d057620003cf62000371565b5b50919050565b61127b80620003e66000396000f3fe6080604052600436106100865760003560e01c8063715018a611610059578063715018a6146101475780638da5cb5b1461015e578063d0febe4c14610189578063f2fde38b14610193578063fe907c1f146101bc57610086565b806306fdde031461008b57806326a4e8d2146100b65780632c4e722e146100f35780636c11bcd31461011e575b600080fd5b34801561009757600080fd5b506100a06101e7565b6040516100ad9190610ac8565b60405180910390f35b3480156100c257600080fd5b506100dd60048036038101906100d89190610b5f565b610275565b6040516100ea9190610ba7565b60405180910390f35b3480156100ff57600080fd5b5061010861033d565b6040516101159190610bdb565b60405180910390f35b34801561012a57600080fd5b5061014560048036038101906101409190610c22565b610343565b005b34801561015357600080fd5b5061015c6105b2565b005b34801561016a57600080fd5b5061017361063a565b6040516101809190610c5e565b60405180910390f35b610191610663565b005b34801561019f57600080fd5b506101ba60048036038101906101b59190610ca5565b610845565b005b3480156101c857600080fd5b506101d161093d565b6040516101de9190610d31565b60405180910390f35b600380546101f490610d7b565b80601f016020809104026020016040519081016040528092919081815260200182805461022090610d7b565b801561026d5780601f106102425761010080835404028352916020019161026d565b820191906000526020600020905b81548152906001019060200180831161025057829003601f168201915b505050505081565b600061027f610963565b73ffffffffffffffffffffffffffffffffffffffff1661029d61063a565b73ffffffffffffffffffffffffffffffffffffffff16146102f3576040517f08c379a00000000000000000000000000000000000000000000000000000000081526004016102ea90610df9565b60405180910390fd5b81600160006101000a81548173ffffffffffffffffffffffffffffffffffffffff021916908373ffffffffffffffffffffffffffffffffffffffff16021790555060019050919050565b60025481565b80600160009054906101000a900473ffffffffffffffffffffffffffffffffffffffff1673ffffffffffffffffffffffffffffffffffffffff166370a08231336040518263ffffffff1660e01b815260040161039f9190610c5e565b602060405180830381865afa1580156103bc573d6000803e3d6000fd5b505050506040513d601f19601f820116820180604052508101906103e09190610e2e565b1015610421576040517f08c379a000000000000000000000000000000000000000000000000000000000815260040161041890610ecd565b60405180910390fd5b6000600254826104319190610f4b565b905080471015610476576040517f08c379a000000000000000000000000000000000000000000000000000000000815260040161046d90610fee565b60405180910390fd5b600160009054906101000a900473ffffffffffffffffffffffffffffffffffffffff1673ffffffffffffffffffffffffffffffffffffffff166323b872dd3330856040518463ffffffff1660e01b81526004016104d59392919061100e565b6020604051808303816000875af11580156104f4573d6000803e3d6000fd5b505050506040513d601f19601f820116820180604052508101906105189190611071565b503373ffffffffffffffffffffffffffffffffffffffff166108fc829081150290604051600060405180830381858888f1935050505015801561055f573d6000803e3d6000fd5b503373ffffffffffffffffffffffffffffffffffffffff167f4f0a05c98d5132dc12d8adee36e2453f1d5bcfd87ae6c465e0d99e5fc8a3a0ba836040516105a69190610bdb565b60405180910390a25050565b6105ba610963565b73ffffffffffffffffffffffffffffffffffffffff166105d861063a565b73ffffffffffffffffffffffffffffffffffffffff161461062e576040517f08c379a000000000000000000000000000000000000000000000000000000000815260040161062590610df9565b60405180910390fd5b610638600061096b565b565b60008060009054906101000a900473ffffffffffffffffffffffffffffffffffffffff16905090565b600060025434610673919061109e565b905080600160009054906101000a900473ffffffffffffffffffffffffffffffffffffffff1673ffffffffffffffffffffffffffffffffffffffff166370a08231306040518263ffffffff1660e01b81526004016106d19190610c5e565b602060405180830381865afa1580156106ee573d6000803e3d6000fd5b505050506040513d601f19601f820116820180604052508101906107129190610e2e565b1015610753576040517f08c379a000000000000000000000000000000000000000000000000000000000815260040161074a9061116a565b60405180910390fd5b600160009054906101000a900473ffffffffffffffffffffffffffffffffffffffff1673ffffffffffffffffffffffffffffffffffffffff1663a9059cbb33836040518363ffffffff1660e01b81526004016107b092919061118a565b6020604051808303816000875af11580156107cf573d6000803e3d6000fd5b505050506040513d601f19601f820116820180604052508101906107f39190611071565b503373ffffffffffffffffffffffffffffffffffffffff167f4aff2c4e63da20aaa26764b3e97f557bf5e95b76ddba8f97a156abbecb0818468260405161083a9190610bdb565b60405180910390a250565b61084d610963565b73ffffffffffffffffffffffffffffffffffffffff1661086b61063a565b73ffffffffffffffffffffffffffffffffffffffff16146108c1576040517f08c379a00000000000000000000000000000000000000000000000000000000081526004016108b890610df9565b60405180910390fd5b600073ffffffffffffffffffffffffffffffffffffffff168173ffffffffffffffffffffffffffffffffffffffff161415610931576040517f08c379a000000000000000000000000000000000000000000000000000000000815260040161092890611225565b60405180910390fd5b61093a8161096b565b50565b600160009054906101000a900473ffffffffffffffffffffffffffffffffffffffff1681565b600033905090565b60008060009054906101000a900473ffffffffffffffffffffffffffffffffffffffff169050816000806101000a81548173ffffffffffffffffffffffffffffffffffffffff021916908373ffffffffffffffffffffffffffffffffffffffff1602179055508173ffffffffffffffffffffffffffffffffffffffff168173ffffffffffffffffffffffffffffffffffffffff167f8be0079c531659141344cd1fd0a4f28419497f9722a3daafe3b4186f6b6457e060405160405180910390a35050565b600081519050919050565b600082825260208201905092915050565b60005b83811015610a69578082015181840152602081019050610a4e565b83811115610a78576000848401525b50505050565b6000601f19601f8301169050919050565b6000610a9a82610a2f565b610aa48185610a3a565b9350610ab4818560208601610a4b565b610abd81610a7e565b840191505092915050565b60006020820190508181036000830152610ae28184610a8f565b905092915050565b600080fd5b600073ffffffffffffffffffffffffffffffffffffffff82169050919050565b6000610b1a82610aef565b9050919050565b6000610b2c82610b0f565b9050919050565b610b3c81610b21565b8114610b4757600080fd5b50565b600081359050610b5981610b33565b92915050565b600060208284031215610b7557610b74610aea565b5b6000610b8384828501610b4a565b91505092915050565b60008115159050919050565b610ba181610b8c565b82525050565b6000602082019050610bbc6000830184610b98565b92915050565b6000819050919050565b610bd581610bc2565b82525050565b6000602082019050610bf06000830184610bcc565b92915050565b610bff81610bc2565b8114610c0a57600080fd5b50565b600081359050610c1c81610bf6565b92915050565b600060208284031215610c3857610c37610aea565b5b6000610c4684828501610c0d565b91505092915050565b610c5881610b0f565b82525050565b6000602082019050610c736000830184610c4f565b92915050565b610c8281610b0f565b8114610c8d57600080fd5b50565b600081359050610c9f81610c79565b92915050565b600060208284031215610cbb57610cba610aea565b5b6000610cc984828501610c90565b91505092915050565b6000819050919050565b6000610cf7610cf2610ced84610aef565b610cd2565b610aef565b9050919050565b6000610d0982610cdc565b9050919050565b6000610d1b82610cfe565b9050919050565b610d2b81610d10565b82525050565b6000602082019050610d466000830184610d22565b92915050565b7f4e487b7100000000000000000000000000000000000000000000000000000000600052602260045260246000fd5b60006002820490506001821680610d9357607f821691505b60208210811415610da757610da6610d4c565b5b50919050565b7f4f776e61626c653a2063616c6c6572206973206e6f7420746865206f776e6572600082015250565b6000610de3602083610a3a565b9150610dee82610dad565b602082019050919050565b60006020820190508181036000830152610e1281610dd6565b9050919050565b600081519050610e2881610bf6565b92915050565b600060208284031215610e4457610e43610aea565b5b6000610e5284828501610e19565b91505092915050565b7f596f7520646f65736e2774206861766520656e6f7567687420416e746571546f60008201527f6b656e2e00000000000000000000000000000000000000000000000000000000602082015250565b6000610eb7602483610a3a565b9150610ec282610e5b565b604082019050919050565b60006020820190508181036000830152610ee681610eaa565b9050919050565b7f4e487b7100000000000000000000000000000000000000000000000000000000600052601260045260246000fd5b7f4e487b7100000000000000000000000000000000000000000000000000000000600052601160045260246000fd5b6000610f5682610bc2565b9150610f6183610bc2565b925082610f7157610f70610eed565b5b828204905092915050565b7f416e746571546f6b656e205377617020646f65736e2774206861766520656e6f60008201527f7567687420457468657220746f2062757920796f75727320746f6b656e2e0000602082015250565b6000610fd8603e83610a3a565b9150610fe382610f7c565b604082019050919050565b6000602082019050818103600083015261100781610fcb565b9050919050565b60006060820190506110236000830186610c4f565b6110306020830185610c4f565b61103d6040830184610bcc565b949350505050565b61104e81610b8c565b811461105957600080fd5b50565b60008151905061106b81611045565b92915050565b60006020828403121561108757611086610aea565b5b60006110958482850161105c565b91505092915050565b60006110a982610bc2565b91506110b483610bc2565b9250817fffffffffffffffffffffffffffffffffffffffffffffffffffffffffffffffff04831182151516156110ed576110ec610f1c565b5b828202905092915050565b7f416e746571546f6b656e2053776170206861766e277420656e6f75676874204160008201527f4e512e0000000000000000000000000000000000000000000000000000000000602082015250565b6000611154602383610a3a565b915061115f826110f8565b604082019050919050565b6000602082019050818103600083015261118381611147565b9050919050565b600060408201905061119f6000830185610c4f565b6111ac6020830184610bcc565b9392505050565b7f4f776e61626c653a206e6577206f776e657220697320746865207a65726f206160008201527f6464726573730000000000000000000000000000000000000000000000000000602082015250565b600061120f602683610a3a565b915061121a826111b3565b604082019050919050565b6000602082019050818103600083015261123e81611202565b905091905056fea26469706673582212201b08b90a950267d087e14bb6bbc84ee2a0736ac30ce63a5358316cb54b7ba14964736f6c634300080b0033",
  "immutableReferences": {},
  "source": "// SPDX-License-Identifier: MIT\npragma solidity ^0.8.0;\n\nimport \"@openzeppelin/contracts/access/Ownable.sol\";\nimport \"./AnteqToken.sol\";\n\ncontract ANQSwap is Ownable {\n    AnteqToken public anteqToken;\n    uint256 public rate;\n    string public name = \"AnteqToken Swap\";\n\n    constructor(AnteqToken _token, uint256 _rate) {\n        anteqToken = _token;\n        rate = _rate;\n    }\n\n    event BuyTokens(address indexed _buyer, uint256 _amount);\n    event SellTokens(address indexed _seller, uint256 _amount);\n\n    function setTokenAddress(AnteqToken _token)\n        external\n        onlyOwner\n        returns (bool success)\n    {\n        anteqToken = _token;\n        return true;\n    }\n\n    function buyTokens() external payable {\n        uint256 amountANQ = msg.value * rate;\n        require(\n            anteqToken.balanceOf(address(this)) >= amountANQ,\n            \"AnteqToken Swap havn't enought ANQ.\"\n        );\n        anteqToken.transfer(msg.sender, amountANQ);\n        emit BuyTokens(msg.sender, amountANQ);\n    }\n\n    function sellTokens(uint256 _value) public {\n        require(\n            anteqToken.balanceOf(msg.sender) >= _value,\n            \"You doesn't have enought AnteqToken.\"\n        );\n        uint256 etherToSendBack = _value / rate;\n        require(\n            address(this).balance >= etherToSendBack,\n            \"AnteqToken Swap doesn't have enought Ether to buy yours token.\"\n        );\n        anteqToken.transferFrom(msg.sender, address(this), _value);\n        payable(msg.sender).transfer(etherToSendBack);\n        emit SellTokens(msg.sender, _value);\n    }\n\n    // ADD WITHDRAW FUNCION\n    // function withdraw() external onlyOwner returns (bool success){\n    //     payable(owner().address).transfer();\n    // }\n}\n",
  "sourcePath": "D:\\programming\\first-simple-dapp\\contracts\\ANQSwap.sol",
  "compiler": {
    "name": "solc",
    "version": "0.8.11+commit.d7f03943.Emscripten.clang"
  },
  "schemaVersion": "3.4.4",
  "updatedAt": "2022-01-21T12:17:59.655Z",
  "networkType": "ethereum",
  "devdoc": {
    "kind": "dev",
    "methods": {
      "owner()": {
        "details": "Returns the address of the current owner."
      },
      "renounceOwnership()": {
        "details": "Leaves the contract without owner. It will not be possible to call `onlyOwner` functions anymore. Can only be called by the current owner. NOTE: Renouncing ownership will leave the contract without an owner, thereby removing any functionality that is only available to the owner."
      },
      "transferOwnership(address)": {
        "details": "Transfers ownership of the contract to a new account (`newOwner`). Can only be called by the current owner."
      }
    },
    "version": 1
  },
  "userdoc": {
    "kind": "user",
    "methods": {},
    "version": 1
  }
}