{
  "contractName": "AnteqToken",
  "abi": [
    {
      "inputs": [],
      "payable": false,
      "stateMutability": "nonpayable",
      "type": "constructor"
    },
    {
      "anonymous": false,
      "inputs": [
        {
          "indexed": true,
          "internalType": "address",
          "name": "_owner",
          "type": "address"
        },
        {
          "indexed": true,
          "internalType": "address",
          "name": "_spender",
          "type": "address"
        },
        {
          "indexed": false,
          "internalType": "uint256",
          "name": "_value",
          "type": "uint256"
        }
      ],
      "name": "Approval",
      "type": "event"
    },
    {
      "anonymous": false,
      "inputs": [
        {
          "indexed": true,
          "internalType": "address",
          "name": "_from",
          "type": "address"
        },
        {
          "indexed": true,
          "internalType": "address",
          "name": "_to",
          "type": "address"
        },
        {
          "indexed": false,
          "internalType": "uint256",
          "name": "_value",
          "type": "uint256"
        }
      ],
      "name": "Transfer",
      "type": "event"
    },
    {
      "constant": true,
      "inputs": [
        {
          "internalType": "address",
          "name": "",
          "type": "address"
        },
        {
          "internalType": "address",
          "name": "",
          "type": "address"
        }
      ],
      "name": "allowance",
      "outputs": [
        {
          "internalType": "uint256",
          "name": "",
          "type": "uint256"
        }
      ],
      "payable": false,
      "stateMutability": "view",
      "type": "function"
    },
    {
      "constant": true,
      "inputs": [
        {
          "internalType": "address",
          "name": "",
          "type": "address"
        }
      ],
      "name": "balanceOf",
      "outputs": [
        {
          "internalType": "uint256",
          "name": "",
          "type": "uint256"
        }
      ],
      "payable": false,
      "stateMutability": "view",
      "type": "function"
    },
    {
      "constant": true,
      "inputs": [],
      "name": "name",
      "outputs": [
        {
          "internalType": "string",
          "name": "",
          "type": "string"
        }
      ],
      "payable": false,
      "stateMutability": "view",
      "type": "function"
    },
    {
      "constant": true,
      "inputs": [],
      "name": "symbol",
      "outputs": [
        {
          "internalType": "string",
          "name": "",
          "type": "string"
        }
      ],
      "payable": false,
      "stateMutability": "view",
      "type": "function"
    },
    {
      "constant": true,
      "inputs": [],
      "name": "totalSupply",
      "outputs": [
        {
          "internalType": "uint256",
          "name": "",
          "type": "uint256"
        }
      ],
      "payable": false,
      "stateMutability": "view",
      "type": "function"
    },
    {
      "constant": true,
      "inputs": [],
      "name": "decimals",
      "outputs": [
        {
          "internalType": "uint8",
          "name": "",
          "type": "uint8"
        }
      ],
      "payable": false,
      "stateMutability": "view",
      "type": "function"
    }
  ],
  "bytecode": "0x60806040526040518060400160405280600a81526020017f416e746571546f6b656e000000000000000000000000000000000000000000008152506000908051906020019061004f92919061011e565b506040518060400160405280600381526020017f414e5100000000000000000000000000000000000000000000000000000000008152506001908051906020019061009b92919061011e565b5069d3c21bcecceda10000006002556012600360006101000a81548160ff021916908360ff1602179055503480156100d257600080fd5b50600254600460003373ffffffffffffffffffffffffffffffffffffffff1673ffffffffffffffffffffffffffffffffffffffff168152602001908152602001600020819055506101c3565b828054600181600116156101000203166002900490600052602060002090601f016020900481019282601f1061015f57805160ff191683800117855561018d565b8280016001018555821561018d579182015b8281111561018c578251825591602001919060010190610171565b5b50905061019a919061019e565b5090565b6101c091905b808211156101bc5760008160009055506001016101a4565b5090565b90565b610456806101d26000396000f3fe608060405234801561001057600080fd5b50600436106100625760003560e01c806306fdde031461006757806318160ddd146100ea578063313ce5671461010857806370a082311461012c57806395d89b4114610184578063dd62ed3e14610207575b600080fd5b61006f61027f565b6040518080602001828103825283818151815260200191508051906020019080838360005b838110156100af578082015181840152602081019050610094565b50505050905090810190601f1680156100dc5780820380516001836020036101000a031916815260200191505b509250505060405180910390f35b6100f2610321565b6040518082815260200191505060405180910390f35b61011061032b565b604051808260ff1660ff16815260200191505060405180910390f35b61016e6004803603602081101561014257600080fd5b81019080803573ffffffffffffffffffffffffffffffffffffffff169060200190929190505050610342565b6040518082815260200191505060405180910390f35b61018c61035a565b6040518080602001828103825283818151815260200191508051906020019080838360005b838110156101cc5780820151818401526020810190506101b1565b50505050905090810190601f1680156101f95780820380516001836020036101000a031916815260200191505b509250505060405180910390f35b6102696004803603604081101561021d57600080fd5b81019080803573ffffffffffffffffffffffffffffffffffffffff169060200190929190803573ffffffffffffffffffffffffffffffffffffffff1690602001909291905050506103fc565b6040518082815260200191505060405180910390f35b606060008054600181600116156101000203166002900480601f0160208091040260200160405190810160405280929190818152602001828054600181600116156101000203166002900480156103175780601f106102ec57610100808354040283529160200191610317565b820191906000526020600020905b8154815290600101906020018083116102fa57829003601f168201915b5050505050905090565b6000600254905090565b6000600360009054906101000a900460ff16905090565b60046020528060005260406000206000915090505481565b606060018054600181600116156101000203166002900480601f0160208091040260200160405190810160405280929190818152602001828054600181600116156101000203166002900480156103f25780601f106103c7576101008083540402835291602001916103f2565b820191906000526020600020905b8154815290600101906020018083116103d557829003601f168201915b5050505050905090565b600560205281600052604060002060205280600052604060002060009150915050548156fea265627a7a7231582017da8620450d6326608cd80a9fcfc634a839781e8d01375e939ce09d709ed3c864736f6c63430005100032",
  "source": "pragma solidity >= 0.4.21 < 8.11.0;\r\n\r\ncontract AnteqToken{\r\n\r\n  string private _name = \"AnteqToken\";\r\n  string private _symbol = \"ANQ\";\r\n  uint256 private _totalSupply = 1000000000000000000000000; // 1 million tokens\r\n  uint8   private _decimals = 18;\r\n\r\n  mapping(address => uint256) public balanceOf;\r\n  mapping(address => mapping(address => uint256)) public allowance;\r\n\r\n\r\n  constructor() public {\r\n    balanceOf[msg.sender] = _totalSupply;\r\n  }\r\n\r\n  event Transfer(address indexed _from, address indexed _to, uint256 _value);\r\n  event Approval(address indexed _owner, address indexed _spender, uint256 _value);\r\n\r\n  function name() public view returns (string memory){\r\n    return _name;\r\n  }\r\n  \r\n  function symbol() public view returns (string memory){\r\n    return _symbol;\r\n  }\r\n\r\n  function totalSupply() public view returns (uint256){\r\n    return _totalSupply;\r\n  }\r\n\r\n  function decimals() public view returns (uint8){\r\n    return _decimals;\r\n  }\r\n\r\n\r\n  // function balanceOf(address _owner) public view returns (uint256 balance)\r\n  // function transfer(address _to, uint256 _value) public returns (bool success)\r\n  // function transferFrom(address _from, address _to, uint256 _value) public returns (bool success)\r\n  // function approve(address _spender, uint256 _value) public returns (bool success)\r\n  // function allowance(address _owner, address _spender) public view returns (uint256 remaining)\r\n\r\n}",
  "sourcePath": "D:\\programming\\first-simple-dapp\\contracts\\AnteqToken.sol",
  "compiler": {
    "name": "solc",
    "version": "0.5.16+commit.9c3226ce.Emscripten.clang"
  },
  "schemaVersion": "3.4.4",
  "updatedAt": "2022-01-19T09:49:52.349Z",
  "devdoc": {
    "methods": {}
  },
  "userdoc": {
    "methods": {}
  }
}